:060000000A128A11BE2F56
:100ED6003F3406345B344F3466346D347D34073426
:100EE600FF3467347E088A007F0882000A128A115E
:100EF60075270A128A118000840A04087D060319E0
:100F06000034FF0A0319FE0A792F80308316031373
:100F16008600831203138601B42FB42F7A08703E1D
:100F26008400000886000130FA070318FB0A003027
:100F3600FB077B08803AFF0080307F02031DA52F48
:100F46000A307A02031CA82FA92FAD2FFA01FB0144
:100F5600AD2FAD2F83120313861BB22FB32FAD2FE8
:100F6600B42F861BB72FB82F912FB42FB42FB42FC1
:100F76000A128A110028FA01FB010A128A116B274C
:100F86000A128A11F0000A128A116C270A128A11B3
:100F9600F1000A128A116D270A128A11F2000A124A
:100FA6008A116E270A128A11F3000A128A116F2714
:100FB6000A128A11F4000A128A1170270A128A117B
:100FC600F5000A128A1171270A128A11F6000A120E
:100FD6008A1172270A128A11F7000A128A117327D8
:100FE6000A128A11F8000A128A1174270A128A1143
:0A0FF600F90083010A128A11882F06
:02400E003A3F37
:00000001FF
